{
    "contractName": "DigitalMeterai",
    "abi": [
        {
            "inputs": [],
            "stateMutability": "nonpayable",
            "type": "constructor"
        },
        {
            "inputs": [],
            "name": "DMT___CannotRemoveOwner",
            "type": "error"
        },
        {
            "inputs": [],
            "name": "DMT___ForbiddenActionsNotOwner",
            "type": "error"
        },
        {
            "inputs": [],
            "name": "DMT___InvalidTransactionIncorrectValue",
            "type": "error"
        },
        {
            "inputs": [],
            "name": "DMT___OutOfStock",
            "type": "error"
        },
        {
            "inputs": [],
            "name": "DMT___UnmatchedStatusNotAvailable",
            "type": "error"
        },
        {
            "inputs": [],
            "name": "DMT___UnmatchedStatusNotBound",
            "type": "error"
        },
        {
            "inputs": [],
            "name": "DMT___UnmatchedStatusNotPaid",
            "type": "error"
        },
        {
            "anonymous": false,
            "inputs": [
                {
                    "indexed": true,
                    "internalType": "address",
                    "name": "owner",
                    "type": "address"
                },
                {
                    "indexed": true,
                    "internalType": "address",
                    "name": "approved",
                    "type": "address"
                },
                {
                    "indexed": true,
                    "internalType": "uint256",
                    "name": "tokenId",
                    "type": "uint256"
                }
            ],
            "name": "Approval",
            "type": "event"
        },
        {
            "anonymous": false,
            "inputs": [
                {
                    "indexed": true,
                    "internalType": "address",
                    "name": "owner",
                    "type": "address"
                },
                {
                    "indexed": true,
                    "internalType": "address",
                    "name": "operator",
                    "type": "address"
                },
                {
                    "indexed": false,
                    "internalType": "bool",
                    "name": "approved",
                    "type": "bool"
                }
            ],
            "name": "ApprovalForAll",
            "type": "event"
        },
        {
            "anonymous": false,
            "inputs": [],
            "name": "DMT___AccessControlAdded",
            "type": "event"
        },
        {
            "anonymous": false,
            "inputs": [],
            "name": "DMT___AccessControlRemoved",
            "type": "event"
        },
        {
            "anonymous": false,
            "inputs": [
                {
                    "indexed": false,
                    "internalType": "uint256",
                    "name": "tokenId",
                    "type": "uint256"
                }
            ],
            "name": "DMT___Bought",
            "type": "event"
        },
        {
            "anonymous": false,
            "inputs": [],
            "name": "DMT___Bound",
            "type": "event"
        },
        {
            "anonymous": false,
            "inputs": [
                {
                    "indexed": false,
                    "internalType": "uint256[]",
                    "name": "tokenIds",
                    "type": "uint256[]"
                }
            ],
            "name": "DMT___Minted",
            "type": "event"
        },
        {
            "anonymous": false,
            "inputs": [
                {
                    "indexed": true,
                    "internalType": "address",
                    "name": "previousOwner",
                    "type": "address"
                },
                {
                    "indexed": true,
                    "internalType": "address",
                    "name": "newOwner",
                    "type": "address"
                }
            ],
            "name": "OwnershipTransferred",
            "type": "event"
        },
        {
            "anonymous": false,
            "inputs": [
                {
                    "indexed": true,
                    "internalType": "address",
                    "name": "from",
                    "type": "address"
                },
                {
                    "indexed": true,
                    "internalType": "address",
                    "name": "to",
                    "type": "address"
                },
                {
                    "indexed": true,
                    "internalType": "uint256",
                    "name": "tokenId",
                    "type": "uint256"
                }
            ],
            "name": "Transfer",
            "type": "event"
        },
        {
            "inputs": [
                {
                    "internalType": "uint256",
                    "name": "_tokenId",
                    "type": "uint256"
                },
                {
                    "internalType": "address",
                    "name": "_address",
                    "type": "address"
                }
            ],
            "name": "addAccessControl",
            "outputs": [],
            "stateMutability": "nonpayable",
            "type": "function"
        },
        {
            "inputs": [
                {
                    "internalType": "address",
                    "name": "to",
                    "type": "address"
                },
                {
                    "internalType": "uint256",
                    "name": "tokenId",
                    "type": "uint256"
                }
            ],
            "name": "approve",
            "outputs": [],
            "stateMutability": "nonpayable",
            "type": "function"
        },
        {
            "inputs": [
                {
                    "internalType": "address",
                    "name": "owner",
                    "type": "address"
                }
            ],
            "name": "balanceOf",
            "outputs": [
                {
                    "internalType": "uint256",
                    "name": "",
                    "type": "uint256"
                }
            ],
            "stateMutability": "view",
            "type": "function"
        },
        {
            "inputs": [
                {
                    "internalType": "uint256",
                    "name": "_tokenId",
                    "type": "uint256"
                },
                {
                    "internalType": "string",
                    "name": "_document",
                    "type": "string"
                },
                {
                    "internalType": "string",
                    "name": "_password",
                    "type": "string"
                }
            ],
            "name": "bind",
            "outputs": [],
            "stateMutability": "nonpayable",
            "type": "function"
        },
        {
            "inputs": [
                {
                    "internalType": "uint256",
                    "name": "_tokenId",
                    "type": "uint256"
                }
            ],
            "name": "buy",
            "outputs": [],
            "stateMutability": "payable",
            "type": "function"
        },
        {
            "inputs": [
                {
                    "internalType": "uint256",
                    "name": "_tokenId",
                    "type": "uint256"
                }
            ],
            "name": "getAccessControl",
            "outputs": [
                {
                    "internalType": "address[]",
                    "name": "",
                    "type": "address[]"
                }
            ],
            "stateMutability": "view",
            "type": "function"
        },
        {
            "inputs": [
                {
                    "internalType": "uint256",
                    "name": "tokenId",
                    "type": "uint256"
                }
            ],
            "name": "getApproved",
            "outputs": [
                {
                    "internalType": "address",
                    "name": "",
                    "type": "address"
                }
            ],
            "stateMutability": "view",
            "type": "function"
        },
        {
            "inputs": [],
            "name": "getAvailableToken",
            "outputs": [
                {
                    "components": [
                        {
                            "internalType": "uint256",
                            "name": "tokenId",
                            "type": "uint256"
                        },
                        {
                            "internalType": "address",
                            "name": "owner",
                            "type": "address"
                        },
                        {
                            "internalType": "string",
                            "name": "document",
                            "type": "string"
                        },
                        {
                            "internalType": "enum DigitalMeterai.Status",
                            "name": "status",
                            "type": "uint8"
                        },
                        {
                            "internalType": "uint256",
                            "name": "price",
                            "type": "uint256"
                        }
                    ],
                    "internalType": "struct DigitalMeterai.TokenData",
                    "name": "",
                    "type": "tuple"
                }
            ],
            "stateMutability": "view",
            "type": "function"
        },
        {
            "inputs": [],
            "name": "getMyTokens",
            "outputs": [
                {
                    "components": [
                        {
                            "internalType": "uint256",
                            "name": "tokenId",
                            "type": "uint256"
                        },
                        {
                            "internalType": "address",
                            "name": "owner",
                            "type": "address"
                        },
                        {
                            "internalType": "string",
                            "name": "document",
                            "type": "string"
                        },
                        {
                            "internalType": "enum DigitalMeterai.Status",
                            "name": "status",
                            "type": "uint8"
                        },
                        {
                            "internalType": "uint256",
                            "name": "price",
                            "type": "uint256"
                        }
                    ],
                    "internalType": "struct DigitalMeterai.TokenData[]",
                    "name": "",
                    "type": "tuple[]"
                }
            ],
            "stateMutability": "view",
            "type": "function"
        },
        {
            "inputs": [
                {
                    "internalType": "uint256",
                    "name": "_tokenId",
                    "type": "uint256"
                }
            ],
            "name": "getPassword",
            "outputs": [
                {
                    "internalType": "string",
                    "name": "",
                    "type": "string"
                }
            ],
            "stateMutability": "view",
            "type": "function"
        },
        {
            "inputs": [
                {
                    "internalType": "uint256",
                    "name": "_tokenId",
                    "type": "uint256"
                }
            ],
            "name": "getToken",
            "outputs": [
                {
                    "components": [
                        {
                            "internalType": "uint256",
                            "name": "tokenId",
                            "type": "uint256"
                        },
                        {
                            "internalType": "address",
                            "name": "owner",
                            "type": "address"
                        },
                        {
                            "internalType": "string",
                            "name": "document",
                            "type": "string"
                        },
                        {
                            "internalType": "enum DigitalMeterai.Status",
                            "name": "status",
                            "type": "uint8"
                        },
                        {
                            "internalType": "uint256",
                            "name": "price",
                            "type": "uint256"
                        }
                    ],
                    "internalType": "struct DigitalMeterai.TokenData",
                    "name": "",
                    "type": "tuple"
                }
            ],
            "stateMutability": "view",
            "type": "function"
        },
        {
            "inputs": [],
            "name": "getTotalSupply",
            "outputs": [
                {
                    "internalType": "uint256",
                    "name": "",
                    "type": "uint256"
                }
            ],
            "stateMutability": "view",
            "type": "function"
        },
        {
            "inputs": [
                {
                    "internalType": "enum DigitalMeterai.Status",
                    "name": "_status",
                    "type": "uint8"
                }
            ],
            "name": "getTotalSupplyByStatus",
            "outputs": [
                {
                    "internalType": "uint256",
                    "name": "",
                    "type": "uint256"
                }
            ],
            "stateMutability": "view",
            "type": "function"
        },
        {
            "inputs": [
                {
                    "internalType": "address",
                    "name": "owner",
                    "type": "address"
                },
                {
                    "internalType": "address",
                    "name": "operator",
                    "type": "address"
                }
            ],
            "name": "isApprovedForAll",
            "outputs": [
                {
                    "internalType": "bool",
                    "name": "",
                    "type": "bool"
                }
            ],
            "stateMutability": "view",
            "type": "function"
        },
        {
            "inputs": [
                {
                    "internalType": "uint256",
                    "name": "_quantity",
                    "type": "uint256"
                },
                {
                    "internalType": "uint256",
                    "name": "_price",
                    "type": "uint256"
                }
            ],
            "name": "mint",
            "outputs": [],
            "stateMutability": "nonpayable",
            "type": "function"
        },
        {
            "inputs": [],
            "name": "name",
            "outputs": [
                {
                    "internalType": "string",
                    "name": "",
                    "type": "string"
                }
            ],
            "stateMutability": "view",
            "type": "function"
        },
        {
            "inputs": [],
            "name": "owner",
            "outputs": [
                {
                    "internalType": "address",
                    "name": "",
                    "type": "address"
                }
            ],
            "stateMutability": "view",
            "type": "function"
        },
        {
            "inputs": [
                {
                    "internalType": "uint256",
                    "name": "tokenId",
                    "type": "uint256"
                }
            ],
            "name": "ownerOf",
            "outputs": [
                {
                    "internalType": "address",
                    "name": "",
                    "type": "address"
                }
            ],
            "stateMutability": "view",
            "type": "function"
        },
        {
            "inputs": [
                {
                    "internalType": "uint256",
                    "name": "_tokenId",
                    "type": "uint256"
                },
                {
                    "internalType": "address",
                    "name": "_address",
                    "type": "address"
                }
            ],
            "name": "removeAccessControl",
            "outputs": [],
            "stateMutability": "nonpayable",
            "type": "function"
        },
        {
            "inputs": [],
            "name": "renounceOwnership",
            "outputs": [],
            "stateMutability": "nonpayable",
            "type": "function"
        },
        {
            "inputs": [
                {
                    "internalType": "address",
                    "name": "from",
                    "type": "address"
                },
                {
                    "internalType": "address",
                    "name": "to",
                    "type": "address"
                },
                {
                    "internalType": "uint256",
                    "name": "tokenId",
                    "type": "uint256"
                }
            ],
            "name": "safeTransferFrom",
            "outputs": [],
            "stateMutability": "nonpayable",
            "type": "function"
        },
        {
            "inputs": [
                {
                    "internalType": "address",
                    "name": "from",
                    "type": "address"
                },
                {
                    "internalType": "address",
                    "name": "to",
                    "type": "address"
                },
                {
                    "internalType": "uint256",
                    "name": "tokenId",
                    "type": "uint256"
                },
                {
                    "internalType": "bytes",
                    "name": "data",
                    "type": "bytes"
                }
            ],
            "name": "safeTransferFrom",
            "outputs": [],
            "stateMutability": "nonpayable",
            "type": "function"
        },
        {
            "inputs": [
                {
                    "internalType": "address",
                    "name": "operator",
                    "type": "address"
                },
                {
                    "internalType": "bool",
                    "name": "approved",
                    "type": "bool"
                }
            ],
            "name": "setApprovalForAll",
            "outputs": [],
            "stateMutability": "nonpayable",
            "type": "function"
        },
        {
            "inputs": [
                {
                    "internalType": "bytes4",
                    "name": "interfaceId",
                    "type": "bytes4"
                }
            ],
            "name": "supportsInterface",
            "outputs": [
                {
                    "internalType": "bool",
                    "name": "",
                    "type": "bool"
                }
            ],
            "stateMutability": "view",
            "type": "function"
        },
        {
            "inputs": [],
            "name": "symbol",
            "outputs": [
                {
                    "internalType": "string",
                    "name": "",
                    "type": "string"
                }
            ],
            "stateMutability": "view",
            "type": "function"
        },
        {
            "inputs": [
                {
                    "internalType": "uint256",
                    "name": "",
                    "type": "uint256"
                }
            ],
            "name": "tokenURI",
            "outputs": [
                {
                    "internalType": "string",
                    "name": "",
                    "type": "string"
                }
            ],
            "stateMutability": "view",
            "type": "function"
        },
        {
            "inputs": [
                {
                    "internalType": "address",
                    "name": "from",
                    "type": "address"
                },
                {
                    "internalType": "address",
                    "name": "to",
                    "type": "address"
                },
                {
                    "internalType": "uint256",
                    "name": "tokenId",
                    "type": "uint256"
                }
            ],
            "name": "transferFrom",
            "outputs": [],
            "stateMutability": "nonpayable",
            "type": "function"
        },
        {
            "inputs": [
                {
                    "internalType": "address",
                    "name": "newOwner",
                    "type": "address"
                }
            ],
            "name": "transferOwnership",
            "outputs": [],
            "stateMutability": "nonpayable",
            "type": "function"
        }
    ],
    "bytecode": "608060405260006007553480156200001657600080fd5b506040518060400160405280600f81526020016e4469676974616c204d65746572616960881b8152506040518060400160405280600381526020016211135560ea1b81525081600090816200006c919062000199565b5060016200007b828262000199565b50505062000098620000926200009e60201b60201c565b620000a2565b62000265565b3390565b600680546001600160a01b038381166001600160a01b0319831681179093556040519116919082907f8be0079c531659141344cd1fd0a4f28419497f9722a3daafe3b4186f6b6457e090600090a35050565b634e487b7160e01b600052604160045260246000fd5b600181811c908216806200011f57607f821691505b6020821081036200014057634e487b7160e01b600052602260045260246000fd5b50919050565b601f8211156200019457600081815260208120601f850160051c810160208610156200016f5750805b601f850160051c820191505b8181101562000190578281556001016200017b565b5050505b505050565b81516001600160401b03811115620001b557620001b5620000f4565b620001cd81620001c684546200010a565b8462000146565b602080601f831160018114620002055760008415620001ec5750858301515b600019600386901b1c1916600185901b17855562000190565b600085815260208120601f198616915b82811015620002365788860151825594840194600190910190840162000215565b5085821015620002555787850151600019600388901b60f8161c191681555b5050505050600190811b01905550565b61282d80620002756000396000f3fe6080604052600436106101b75760003560e01c8063715018a6116100ec578063c87b56dd1161008a578063e53bbe2b11610064578063e53bbe2b146104cf578063e985e9c5146104fc578063f2fde38b1461051c578063f38c6bb61461053c57600080fd5b8063c87b56dd1461047c578063d96a094a1461049c578063e4b50cb8146104af57600080fd5b8063a22cb465116100c6578063a22cb46514610405578063ae15821114610425578063b88d4fde14610447578063c4e41b221461046757600080fd5b8063715018a6146103bd5780638da5cb5b146103d257806395d89b41146103f057600080fd5b806323b872dd116101595780635b3b136a116101335780635b3b136a1461033b5780636352211e1461035d578063659d5a5d1461037d57806370a082311461039d57600080fd5b806323b872dd146102cd57806342842e0e146102ed57806351a237f71461030d57600080fd5b8063081812fc11610195578063081812fc14610235578063095ea7b31461026d5780631730bb4a1461028d5780631b2ef1ca146102ad57600080fd5b806301ffc9a7146101bc578063055739de146101f157806306fdde0314610213575b600080fd5b3480156101c857600080fd5b506101dc6101d7366004611fc8565b61055c565b60405190151581526020015b60405180910390f35b3480156101fd57600080fd5b5061021161020c366004612003565b6105ae565b005b34801561021f57600080fd5b506102286106b0565b6040516101e89190612075565b34801561024157600080fd5b50610255610250366004612088565b610742565b6040516001600160a01b0390911681526020016101e8565b34801561027957600080fd5b506102116102883660046120a1565b610769565b34801561029957600080fd5b506102116102a8366004612003565b610883565b3480156102b957600080fd5b506102116102c83660046120cb565b610ae7565b3480156102d957600080fd5b506102116102e83660046120ed565b610bfe565b3480156102f957600080fd5b506102116103083660046120ed565b610c2f565b34801561031957600080fd5b5061032d610328366004612129565b610c4a565b6040519081526020016101e8565b34801561034757600080fd5b50610350610cc5565b6040516101e891906121cd565b34801561036957600080fd5b50610255610378366004612088565b610e9b565b34801561038957600080fd5b506102116103983660046122db565b610efb565b3480156103a957600080fd5b5061032d6103b8366004612348565b61103e565b3480156103c957600080fd5b506102116110c4565b3480156103de57600080fd5b506006546001600160a01b0316610255565b3480156103fc57600080fd5b506102286110d8565b34801561041157600080fd5b50610211610420366004612363565b6110e7565b34801561043157600080fd5b5061043a6110f6565b6040516101e8919061239f565b34801561045357600080fd5b506102116104623660046123b2565b61126e565b34801561047357600080fd5b5061032d6112a6565b34801561048857600080fd5b50610228610497366004612088565b6112b7565b6102116104aa366004612088565b6112d8565b3480156104bb57600080fd5b5061043a6104ca366004612088565b6113eb565b3480156104db57600080fd5b506104ef6104ea366004612088565b61155c565b6040516101e8919061242e565b34801561050857600080fd5b506101dc61051736600461247b565b611620565b34801561052857600080fd5b50610211610537366004612348565b61164e565b34801561054857600080fd5b50610228610557366004612088565b6116c7565b60006001600160e01b031982166380ac58cd60e01b148061058d57506001600160e01b03198216635b5e139f60e01b145b806105a857506301ffc9a760e01b6001600160e01b03198316145b92915050565b60008281526009602052604090205460ff1660028160028111156105d4576105d461214a565b146105f2576040516351590a4560e01b815260040160405180910390fd5b336105fc84610e9b565b6001600160a01b03161415801561062d5750336106216006546001600160a01b031690565b6001600160a01b031614155b1561064b576040516383dadca560e01b815260040160405180910390fd5b6000838152600b60209081526040808320805460018101825590845291832090910180546001600160a01b0319166001600160a01b038616179055517f06386d451f03a8d68db58be4cc5f2b910736caad885552719205f97b926fc3a29190a1505050565b6060600080546106bf906124a5565b80601f01602080910402602001604051908101604052809291908181526020018280546106eb906124a5565b80156107385780601f1061070d57610100808354040283529160200191610738565b820191906000526020600020905b81548152906001019060200180831161071b57829003601f168201915b5050505050905090565b600061074d826117ea565b506000908152600460205260409020546001600160a01b031690565b600061077482610e9b565b9050806001600160a01b0316836001600160a01b0316036107e65760405162461bcd60e51b815260206004820152602160248201527f4552433732313a20617070726f76616c20746f2063757272656e74206f776e656044820152603960f91b60648201526084015b60405180910390fd5b336001600160a01b038216148061080257506108028133611620565b6108745760405162461bcd60e51b815260206004820152603e60248201527f4552433732313a20617070726f76652063616c6c6572206973206e6f7420746f60448201527f6b656e206f776e6572206e6f7220617070726f76656420666f7220616c6c000060648201526084016107dd565b61087e8383611849565b505050565b60008281526009602052604090205460ff1660028160028111156108a9576108a961214a565b146108c7576040516351590a4560e01b815260040160405180910390fd5b336108d184610e9b565b6001600160a01b0316141580156109025750336108f66006546001600160a01b031690565b6001600160a01b031614155b15610920576040516383dadca560e01b815260040160405180910390fd5b6006546001600160a01b0383811691161480610955575061094083610e9b565b6001600160a01b0316826001600160a01b0316145b15610973576040516347a0ea1160e11b815260040160405180910390fd5b60005b6000848152600b6020526040902054811015610ab8576000848152600b6020526040902080546001600160a01b0385169190839081106109b8576109b86124df565b6000918252602090912001546001600160a01b031603610aa6576000848152600b6020526040902080546109ee9060019061250b565b815481106109fe576109fe6124df565b6000918252602080832090910154868352600b909152604090912080546001600160a01b039092169183908110610a3757610a376124df565b600091825260208083209190910180546001600160a01b0319166001600160a01b039490941693909317909255858152600b90915260409020805480610a7f57610a7f61251e565b600082815260209020810160001990810180546001600160a01b0319169055019055610ab8565b80610ab081612534565b915050610976565b506040517fad0c60dfaf6d45b8d60c62b114521e006289880dfd25c927eeab05a59aaaa39990600090a1505050565b610aef6118b7565b60008267ffffffffffffffff811115610b0a57610b0a61222f565b604051908082528060200260200182016040528015610b33578160200160208202803683370190505b50905060005b83811015610bc157610b4d33600754611911565b6007805460009081526008602090815260408083208790558354835260098252808320805460ff191690558051808301825283815293548352600a909152902090610b98908261259b565b5060078054906000610ba983612534565b91905055508080610bb990612534565b915050610b39565b507fd9aeb81e8032f0f5bb17dd21c40d1731d9b165f8a29059832bfbc8b5b9c2ae1781604051610bf1919061265b565b60405180910390a1505050565b610c08338261192b565b610c245760405162461bcd60e51b81526004016107dd90612693565b61087e83838361198a565b61087e8383836040518060200160405280600081525061126e565b6000610c546118b7565b6000805b600754811015610cbc57836002811115610c7457610c7461214a565b60008281526009602052604090205460ff166002811115610c9757610c9761214a565b03610caa5781610ca681612534565b9250505b80610cb481612534565b915050610c58565b5090505b919050565b60606000610cd23361103e565b67ffffffffffffffff811115610cea57610cea61222f565b604051908082528060200260200182016040528015610d2357816020015b610d10611eef565b815260200190600190039081610d085790505b5090506000805b600754811015610e935733610d3e82610e9b565b6001600160a01b031603610e81576040518060a00160405280828152602001610d6683610e9b565b6001600160a01b03168152602001600a60008481526020019081526020016000208054610d92906124a5565b80601f0160208091040260200160405190810160405280929190818152602001828054610dbe906124a5565b8015610e0b5780601f10610de057610100808354040283529160200191610e0b565b820191906000526020600020905b815481529060010190602001808311610dee57829003601f168201915b505050918352505060008381526009602090815260409091205491019060ff166002811115610e3c57610e3c61214a565b81526000838152600860209081526040909120549101528351849084908110610e6757610e676124df565b60200260200101819052508180610e7d90612534565b9250505b80610e8b81612534565b915050610d2a565b509092915050565b6000818152600260205260408120546001600160a01b0316806105a85760405162461bcd60e51b8152602060048201526018602482015277115490cdcc8c4e881a5b9d985b1a59081d1bdad95b88125160421b60448201526064016107dd565b60008381526009602052604090205460ff166001816002811115610f2157610f2161214a565b14610f3f576040516313e67e3d60e11b815260040160405180910390fd5b33610f4985610e9b565b6001600160a01b031614610f70576040516383dadca560e01b815260040160405180910390fd5b6000848152600a60205260409020610f88848261259b565b5060008481526009602052604090819020805460ff19166002179055805180820190915260065481906001600160a01b03166001600160a01b03168152602001610fd186610e9b565b6001600160a01b031690526000858152600b60205260409020610ff5916002611f38565b506000848152600c6020526040902061100e838261259b565b506040517fb8f8f06e6320e93c5f68fab3d28677344029ff2f978ab89e091c16e0cd9b2d4290600090a150505050565b60006001600160a01b0382166110a85760405162461bcd60e51b815260206004820152602960248201527f4552433732313a2061646472657373207a65726f206973206e6f7420612076616044820152683634b21037bbb732b960b91b60648201526084016107dd565b506001600160a01b031660009081526003602052604090205490565b6110cc6118b7565b6110d66000611b26565b565b6060600180546106bf906124a5565b6110f2338383611b78565b5050565b6110fe611eef565b60005b6007548110156112545760008181526009602052604081205460ff16600281111561112e5761112e61214a565b03611242576040518060a0016040528082815260200161114d83610e9b565b6001600160a01b03168152602001600a60008481526020019081526020016000208054611179906124a5565b80601f01602080910402602001604051908101604052809291908181526020018280546111a5906124a5565b80156111f25780601f106111c7576101008083540402835291602001916111f2565b820191906000526020600020905b8154815290600101906020018083116111d557829003601f168201915b505050918352505060008381526009602090815260409091205491019060ff1660028111156112235761122361214a565b8152600092835260086020908152604090932054920191909152919050565b8061124c81612534565b915050611101565b50604051639073eadb60e01b815260040160405180910390fd5b611278338361192b565b6112945760405162461bcd60e51b81526004016107dd90612693565b6112a084848484611c46565b50505050565b60006112b06118b7565b5060075490565b60606040518060800160405280605781526020016127a16057913992915050565b60008181526009602052604081205460ff16908160028111156112fd576112fd61214a565b1461131b576040516353a6e8a160e11b815260040160405180910390fd5b60008281526008602052604090205434811461134a576040516305c1a91d60e31b815260040160405180910390fd5b600061135584610e9b565b905061136281338661198a565b6040516001600160a01b038216903480156108fc02916000818181858888f19350505050158015611397573d6000803e3d6000fd5b50600084815260096020908152604091829020805460ff1916600117905590518581527f6118a5ea856c1ee450f8b5a7c88856883524e0a91e348cc0f62845ea1b51cf3b910160405180910390a150505050565b6113f3611eef565b336113fd83610e9b565b6001600160a01b03161415801561143057506006546001600160a01b031661142483610e9b565b6001600160a01b031614155b1561144e576040516383dadca560e01b815260040160405180910390fd5b6040518060a0016040528083815260200161146884610e9b565b6001600160a01b03168152602001600a60008581526020019081526020016000208054611494906124a5565b80601f01602080910402602001604051908101604052809291908181526020018280546114c0906124a5565b801561150d5780601f106114e25761010080835404028352916020019161150d565b820191906000526020600020905b8154815290600101906020018083116114f057829003601f168201915b505050918352505060008481526009602090815260409091205491019060ff16600281111561153e5761153e61214a565b81526000938452600860209081526040909420549301929092525090565b60603361156883610e9b565b6001600160a01b03161415801561159857503361158d6006546001600160a01b031690565b6001600160a01b0316145b156115b6576040516383dadca560e01b815260040160405180910390fd5b6000828152600b60209081526040918290208054835181840281018401909452808452909183018282801561161457602002820191906000526020600020905b81546001600160a01b031681526001909101906020018083116115f6575b50505050509050919050565b6001600160a01b03918216600090815260056020908152604080832093909416825291909152205460ff1690565b6116566118b7565b6001600160a01b0381166116bb5760405162461bcd60e51b815260206004820152602660248201527f4f776e61626c653a206e6577206f776e657220697320746865207a65726f206160448201526564647265737360d01b60648201526084016107dd565b6116c481611b26565b50565b606060005b6000838152600b60205260409020548110156117d0576000838152600b60205260409020805433919083908110611705576117056124df565b6000918252602090912001546001600160a01b0316036117be576000838152600c602052604090208054611738906124a5565b80601f0160208091040260200160405190810160405280929190818152602001828054611764906124a5565b80156117b15780601f10611786576101008083540402835291602001916117b1565b820191906000526020600020905b81548152906001019060200180831161179457829003601f168201915b5050505050915050919050565b806117c881612534565b9150506116cc565b506040516383dadca560e01b815260040160405180910390fd5b6000818152600260205260409020546001600160a01b03166116c45760405162461bcd60e51b8152602060048201526018602482015277115490cdcc8c4e881a5b9d985b1a59081d1bdad95b88125160421b60448201526064016107dd565b600081815260046020526040902080546001600160a01b0319166001600160a01b038416908117909155819061187e82610e9b565b6001600160a01b03167f8c5be1e5ebec7d5bd14f71427d1e84f3dd0314c0f7b2291e5b200ac8c7c3b92560405160405180910390a45050565b6006546001600160a01b031633146110d65760405162461bcd60e51b815260206004820181905260248201527f4f776e61626c653a2063616c6c6572206973206e6f7420746865206f776e657260448201526064016107dd565b6110f2828260405180602001604052806000815250611c79565b60008061193783610e9b565b9050806001600160a01b0316846001600160a01b0316148061195e575061195e8185611620565b806119825750836001600160a01b031661197784610742565b6001600160a01b0316145b949350505050565b826001600160a01b031661199d82610e9b565b6001600160a01b031614611a015760405162461bcd60e51b815260206004820152602560248201527f4552433732313a207472616e736665722066726f6d20696e636f72726563742060448201526437bbb732b960d91b60648201526084016107dd565b6001600160a01b038216611a635760405162461bcd60e51b8152602060048201526024808201527f4552433732313a207472616e7366657220746f20746865207a65726f206164646044820152637265737360e01b60648201526084016107dd565b611a6e600082611849565b6001600160a01b0383166000908152600360205260408120805460019290611a9790849061250b565b90915550506001600160a01b0382166000908152600360205260408120805460019290611ac59084906126e1565b909155505060008181526002602052604080822080546001600160a01b0319166001600160a01b0386811691821790925591518493918716917fddf252ad1be2c89b69c2b068fc378daa952ba7f163c4a11628f55a4df523b3ef91a4505050565b600680546001600160a01b038381166001600160a01b0319831681179093556040519116919082907f8be0079c531659141344cd1fd0a4f28419497f9722a3daafe3b4186f6b6457e090600090a35050565b816001600160a01b0316836001600160a01b031603611bd95760405162461bcd60e51b815260206004820152601960248201527f4552433732313a20617070726f766520746f2063616c6c65720000000000000060448201526064016107dd565b6001600160a01b03838116600081815260056020908152604080832094871680845294825291829020805460ff191686151590811790915591519182527f17307eab39ab6107e8899845ad3d59bd9653f200f220920489ca2b5937696c31910160405180910390a3505050565b611c5184848461198a565b611c5d84848484611cac565b6112a05760405162461bcd60e51b81526004016107dd906126f4565b611c838383611dad565b611c906000848484611cac565b61087e5760405162461bcd60e51b81526004016107dd906126f4565b60006001600160a01b0384163b15611da257604051630a85bd0160e11b81526001600160a01b0385169063150b7a0290611cf0903390899088908890600401612746565b6020604051808303816000875af1925050508015611d2b575060408051601f3d908101601f19168201909252611d2891810190612783565b60015b611d88573d808015611d59576040519150601f19603f3d011682016040523d82523d6000602084013e611d5e565b606091505b508051600003611d805760405162461bcd60e51b81526004016107dd906126f4565b805181602001fd5b6001600160e01b031916630a85bd0160e11b149050611982565b506001949350505050565b6001600160a01b038216611e035760405162461bcd60e51b815260206004820181905260248201527f4552433732313a206d696e7420746f20746865207a65726f206164647265737360448201526064016107dd565b6000818152600260205260409020546001600160a01b031615611e685760405162461bcd60e51b815260206004820152601c60248201527f4552433732313a20746f6b656e20616c7265616479206d696e7465640000000060448201526064016107dd565b6001600160a01b0382166000908152600360205260408120805460019290611e919084906126e1565b909155505060008181526002602052604080822080546001600160a01b0319166001600160a01b03861690811790915590518392907fddf252ad1be2c89b69c2b068fc378daa952ba7f163c4a11628f55a4df523b3ef908290a45050565b6040518060a001604052806000815260200160006001600160a01b031681526020016060815260200160006002811115611f2b57611f2b61214a565b8152602001600081525090565b828054828255906000526020600020908101928215611f8d579160200282015b82811115611f8d57825182546001600160a01b0319166001600160a01b03909116178255602090920191600190910190611f58565b50611f99929150611f9d565b5090565b5b80821115611f995760008155600101611f9e565b6001600160e01b0319811681146116c457600080fd5b600060208284031215611fda57600080fd5b8135611fe581611fb2565b9392505050565b80356001600160a01b0381168114610cc057600080fd5b6000806040838503121561201657600080fd5b8235915061202660208401611fec565b90509250929050565b6000815180845260005b8181101561205557602081850181015186830182015201612039565b506000602082860101526020601f19601f83011685010191505092915050565b602081526000611fe5602083018461202f565b60006020828403121561209a57600080fd5b5035919050565b600080604083850312156120b457600080fd5b6120bd83611fec565b946020939093013593505050565b600080604083850312156120de57600080fd5b50508035926020909101359150565b60008060006060848603121561210257600080fd5b61210b84611fec565b925061211960208501611fec565b9150604084013590509250925092565b60006020828403121561213b57600080fd5b813560038110611fe557600080fd5b634e487b7160e01b600052602160045260246000fd5b8051825260018060a01b0360208201511660208301526000604082015160a0604085015261219160a085018261202f565b90506060830151600381106121b657634e487b7160e01b600052602160045260246000fd5b606085015260809283015192909301919091525090565b6000602080830181845280855180835260408601915060408160051b870101925083870160005b8281101561222257603f19888603018452612210858351612160565b945092850192908501906001016121f4565b5092979650505050505050565b634e487b7160e01b600052604160045260246000fd5b600067ffffffffffffffff808411156122605761226061222f565b604051601f8501601f19908116603f011681019082821181831017156122885761228861222f565b816040528093508581528686860111156122a157600080fd5b858560208301376000602087830101525050509392505050565b600082601f8301126122cc57600080fd5b611fe583833560208501612245565b6000806000606084860312156122f057600080fd5b83359250602084013567ffffffffffffffff8082111561230f57600080fd5b61231b878388016122bb565b9350604086013591508082111561233157600080fd5b5061233e868287016122bb565b9150509250925092565b60006020828403121561235a57600080fd5b611fe582611fec565b6000806040838503121561237657600080fd5b61237f83611fec565b91506020830135801515811461239457600080fd5b809150509250929050565b602081526000611fe56020830184612160565b600080600080608085870312156123c857600080fd5b6123d185611fec565b93506123df60208601611fec565b925060408501359150606085013567ffffffffffffffff81111561240257600080fd5b8501601f8101871361241357600080fd5b61242287823560208401612245565b91505092959194509250565b6020808252825182820181905260009190848201906040850190845b8181101561246f5783516001600160a01b03168352928401929184019160010161244a565b50909695505050505050565b6000806040838503121561248e57600080fd5b61249783611fec565b915061202660208401611fec565b600181811c908216806124b957607f821691505b6020821081036124d957634e487b7160e01b600052602260045260246000fd5b50919050565b634e487b7160e01b600052603260045260246000fd5b634e487b7160e01b600052601160045260246000fd5b818103818111156105a8576105a86124f5565b634e487b7160e01b600052603160045260246000fd5b600060018201612546576125466124f5565b5060010190565b601f82111561087e57600081815260208120601f850160051c810160208610156125745750805b601f850160051c820191505b8181101561259357828155600101612580565b505050505050565b815167ffffffffffffffff8111156125b5576125b561222f565b6125c9816125c384546124a5565b8461254d565b602080601f8311600181146125fe57600084156125e65750858301515b600019600386901b1c1916600185901b178555612593565b600085815260208120601f198616915b8281101561262d5788860151825594840194600190910190840161260e565b508582101561264b5787850151600019600388901b60f8161c191681555b5050505050600190811b01905550565b6020808252825182820181905260009190848201906040850190845b8181101561246f57835183529284019291840191600101612677565b6020808252602e908201527f4552433732313a2063616c6c6572206973206e6f7420746f6b656e206f776e6560408201526d1c881b9bdc88185c1c1c9bdd995960921b606082015260800190565b808201808211156105a8576105a86124f5565b60208082526032908201527f4552433732313a207472616e7366657220746f206e6f6e20455243373231526560408201527131b2b4bb32b91034b6b83632b6b2b73a32b960711b606082015260800190565b6001600160a01b03858116825284166020820152604081018390526080606082018190526000906127799083018461202f565b9695505050505050565b60006020828403121561279557600080fd5b8151611fe581611fb256fe697066733a2f2f62616679626569673337696f6972373673376d67356f6f6265746e636f6a636d3363336878617379643472766964346a71687934676b61686567342f3f66696c656e616d653d302d5055472e6a736f6ea26469706673582212203adb23c4dc4a966f074e921dc57c88397ba866935436d4aca4758e23c8ed2d5464736f6c63430008110033",
    "sourcePath": "/Users/erbin/Documents/_DEV/Code/d-meterai-contracts/contracts/DigitalMeterai.sol",
    "compiler": {
        "name": "solc",
        "version": "0.8.17+commit.8df45f5f"
    },
    "functionHashes": {
        "addAccessControl(uint256,address)": "055739de",
        "approve(address,uint256)": "095ea7b3",
        "balanceOf(address)": "70a08231",
        "bind(uint256,string,string)": "659d5a5d",
        "buy(uint256)": "d96a094a",
        "getAccessControl(uint256)": "e53bbe2b",
        "getApproved(uint256)": "081812fc",
        "getAvailableToken()": "ae158211",
        "getMyTokens()": "5b3b136a",
        "getPassword(uint256)": "f38c6bb6",
        "getToken(uint256)": "e4b50cb8",
        "getTotalSupply()": "c4e41b22",
        "getTotalSupplyByStatus(uint8)": "51a237f7",
        "isApprovedForAll(address,address)": "e985e9c5",
        "mint(uint256,uint256)": "1b2ef1ca",
        "name()": "06fdde03",
        "owner()": "8da5cb5b",
        "ownerOf(uint256)": "6352211e",
        "removeAccessControl(uint256,address)": "1730bb4a",
        "renounceOwnership()": "715018a6",
        "safeTransferFrom(address,address,uint256)": "42842e0e",
        "safeTransferFrom(address,address,uint256,bytes)": "b88d4fde",
        "setApprovalForAll(address,bool)": "a22cb465",
        "supportsInterface(bytes4)": "01ffc9a7",
        "symbol()": "95d89b41",
        "tokenURI(uint256)": "c87b56dd",
        "transferFrom(address,address,uint256)": "23b872dd",
        "transferOwnership(address)": "f2fde38b"
    },
    "gasEstimates": {
        "creation": {
            "codeDepositCost": "2057000",
            "executionCost": "infinite",
            "totalCost": "infinite"
        },
        "external": {
            "addAccessControl(uint256,address)": "56461",
            "approve(address,uint256)": "infinite",
            "balanceOf(address)": "2700",
            "bind(uint256,string,string)": "infinite",
            "buy(uint256)": "infinite",
            "getAccessControl(uint256)": "infinite",
            "getApproved(uint256)": "4770",
            "getAvailableToken()": "infinite",
            "getMyTokens()": "infinite",
            "getPassword(uint256)": "infinite",
            "getToken(uint256)": "infinite",
            "getTotalSupply()": "4587",
            "getTotalSupplyByStatus(uint8)": "infinite",
            "isApprovedForAll(address,address)": "infinite",
            "mint(uint256,uint256)": "infinite",
            "name()": "infinite",
            "owner()": "2399",
            "ownerOf(uint256)": "2605",
            "removeAccessControl(uint256,address)": "infinite",
            "renounceOwnership()": "infinite",
            "safeTransferFrom(address,address,uint256)": "infinite",
            "safeTransferFrom(address,address,uint256,bytes)": "infinite",
            "setApprovalForAll(address,bool)": "26728",
            "supportsInterface(bytes4)": "557",
            "symbol()": "infinite",
            "tokenURI(uint256)": "infinite",
            "transferFrom(address,address,uint256)": "infinite",
            "transferOwnership(address)": "28424"
        }
    }
}